:0400000080316628BD
:100008007E14803140017F08B0004E0110181A1C80
:1000180012284101DA01DA0A4E0110100F1A191ECE
:1000280018289231D22280314E018F1A991E1F282A
:100038009331022380314E01161A0C1E52287E017C
:1000480055094001AF002F08FD004E010C127E013A
:10005800D51C31288D31222580317E01551D372848
:100068004001DB01DB0A7E01D51D3D284001DA0194
:10007800DA0A7E01551E43284001D901D90A7E01BA
:10008800D51E49284001D801D80A7D084001AF0093
:100098002F087E01D5054101D301D30A4E01961AD6
:1000A8008C1E612801304001D3070030D43D003058
:1000B800D53D0030D63D4E018C1240013008FF007E
:1000C8007E10090080316828410190312F2080314D
:1000D800ED00903130208031EE00903131208031B8
:1000E800EF006D308400903085005F30860001306D
:1000F80087000030FF000F308731F22780313D3014
:10010800840092308500CA308600013087000030B4
:10011800FF001C308731F22780314C3084002630B4
:100128008500A430FE000130FF009031522080315C
:100138004E308400003085001130FE000030FF0092
:10014800903152208031A030840000308500493041
:10015800FE000030FF0090315220803120308400B2
:10016800013085003F30FE000030FF009031522002
:100178008031A0308400013085002A30FE00003034
:10018800FF009031522080312030840002308500F9
:100198001B30FE000030FF00903152207E104001DD
:1001A8009331692B4001B700AF2B55304101200630
:1001B800031D70294001370886000230870002308D
:1001C800463F4101A1004001370886000230870000
:1001D8000230473F4101A200400137088600023043
:1001E80087000230483F4101A30007302405400141
:1001F800B1003708093E8600023087000108073938
:10020800B2000230B235FF3E031D062932353104F3
:10021800B30033084101A40040013708083E8600B6
:10022800023087000108B1000230B136890B192964
:1002380020303105B2004030410125054001B300AE
:100248003708093E8600023087000108B4000330F1
:10025800B436890B2C29340833043204B500350828
:100268004101A500400137080A3E86000230870098
:1002780001081F39B1000130B135FF3E031D402987
:100288003135B20032084101A600400137080A3E64
:1002980086000230870001082039B1003108410189
:1002A800D4004001370886000230870002304B3FF7
:1002B8004101A9004001370886000230870002305A
:1002C8004C3F4101AA0040013708860002308700F0
:1002D80002304D3F4101A70055304001B1003108BF
:1002E8004101A000080040013708063E86000230A0
:1002F800870001081839B1003108B6000830360601
:10030800031D8C29FD30B1003108CF054F150800B9
:1003180010303606031D9629FB30B1003108CF0591
:10032800CF140800FD30B1003108CF05FB30B10013
:100338003108CF0541015408031D0800A401241405
:10034800FD304001B1003108CE05EF30B100310871
:10035800D205FB30B1003108CE05FE30B1003108BE
:10036800CF05FE30B1003108CE05080037088600F9
:10037800023087000230463F4101B0004001370893
:100388008600023087000230473F4101B10040013A
:1003980037088600023087000230483F4101B80024
:1003A800400137088600023087000230493F41018A
:1003B800B900080040013708860002308700023083
:1003C800463F4101AC0040013708860002308700F3
:1003D8000230473F4101AD00400137088600023036
:1003E80087000230483F4101B400400137088600C9
:1003F800023087000230493F4101B5000800400142
:1004080037088600023087000230463F4101B200BB
:10041800400137088600023087000230473F41011B
:10042800B300080040013708860002308700023018
:10043800463F4101AE004001370886000230870080
:100448000230473F4101AF004001370886000230C3
:1004580087000230483F4101B60040013708860056
:10046800023087000230493F4101B70008004001CF
:1004780037088600023087000230463F4101A60057
:10048800080063304001B10031084101A00040017B
:100498003708063E8600023087000108B1000430A4
:1004A800B136890B542A04303105B2003708063EAC
:1004B8008600023087000108B3000530B336890B87
:1004C800622A330801393204B40034084101A1001A
:1004D800400137088600023087000230483F41015A
:1004E800A200400137088600023087000230493FE9
:1004F8004101A3004001370886000230870002301E
:100508004A3F4101A40040013708860002308700B5
:1005180002304B3F4101A5004001370886000230F8
:10052800870002304C3F4101A60040013708860091
:100538000230870002304D3F4101A70040013708D3
:100548008600023087000230473F4101A800400181
:100558003708063E86000230870001081F39B100BF
:1005680031084101A90008004101A51608006330BF
:1005780041012006031D0D2B400137080D3E860062
:10058800023087000103031D062B3708860002305E
:1005980087000230463F4101A2004001370886002B
:1005A800023087000230473F4101A300400137086D
:1005B8008600023087000230483F4101A400400114
:1005C80037088600023087000230493F4101A50004
:1005D8004001370886000230870002304A3F410157
:1005E800A6004001370886000230870002304B3FE2
:1005F8004101A700FD304001B10031084101A105CA
:1006080021140D2BFE304001B10031084101A10534
:10061800A114FE304001B10031084101A805FD30A8
:100628004001B10031084101A80563304001B10023
:1006380031084101A0000800F0304001B100310844
:100648004101A000400137080D3E860002308700B6
:10065800011C080037088600023087000230473F37
:100668004101A200400137088600023087000230AD
:10067800483F4101A3004001370886000230870047
:100688000230493F4101A40040013708860002308A
:10069800870002304A3F4101A5000800633041014C
:1006A8002006031D9C2B400137080A3E86000230B5
:1006B8008700011C812B3708860002308700023032
:1006C8004B3F4101AB0040013708860002308700EC
:1006D80002304C3F4101AC0040013708860002302F
:1006E800870002304D3F4101AD00FD304001B100AF
:1006F80031084101A80528149C2B400137080A3EFF
:10070800860002308700811C902BFE30B100310832
:100718004101A805A8149C2BFE304001B100310806
:100728004101A805FD304001B10031084101A8058B
:10073800FE304001B10031084101A105FD30400102
:10074800B10031084101A10563304001B100310811
:100758004101A000080040013708860002308700E8
:10076800FF300105B1004131FF300105B2004131D0
:1007780000300105B300413100300105B4003408F0
:10078800003A0319F82BFD2B3208003A0319D02B35
:10079800803A0319F02BFD2B3108003A03193B2A44
:1007A800823A0319BA29013A0319DE29073A0319CB
:1007B800032A013A0319162A033A0319B82A163AE2
:1007C8000319452A063A0319BB2A303A0319202B84
:1007D800103A0319522BFD2B3108003A0319D92876
:1007E800023A03197729FD2B3308003A0319C82B5D
:1007F800FD2B080000340034C134C0348134C134C6
:10080800403401340134C334C034033480340234F6
:100818004134C2340134C634C03406348034073419
:100828004134C73400340534C134C5348134C43448
:10083800403404340134CC34C0340C3480340D34A6
:100848004134CD3400340F34C134CF348134CE3404
:1008580040340E3400340A34C134CA348134CB34C1
:1008680040340B340134C934C0340934803408347A
:100878004134C8340134D834C0341834803419347D
:100888004134D93400341B34C134DB348134DA3494
:1008980040341A3400341E34C134DE348134DF3439
:1008A80040341F340134DD34C0341D3480341C34EA
:1008B8004134DC3400341434C134D4348134D53474
:1008C800403415340134D734C034173480341634E6
:1008D8004134D6340134D234C03412348034133421
:1008E8004134D33400341134C134D1348134D03458
:1008F800403410340134F034C0343034803431346E
:100908004134F13400343334C134F3348134F234B3
:100918004034323400343634C134F6348134F73458
:10092800403437340134F534C03435348034343409
:100938004134F43400343C34C134FC348134FD3463
:1009480040343D340134FF34C0343F3480343E34C5
:100958004134FE340134FA34C0343A3480343B3400
:100968004134FB3400343934C134F9348134F83437
:100978004034383400342834C134E8348134E9341C
:10098800403429340134EB34C0342B3480342A34D5
:100998004134EA340134EE34C0342E3480342F34F8
:1009A8004134EF3400342D34C134ED348134EC3427
:1009B80040342C340134E434C034243480342534B5
:1009C8004134E53400342734C134E7348134E63423
:1009D8004034263400342234C134E2348134E334E0
:1009E800403423340134E134C03421348034203499
:1009F8004134E0340134A034C0346034803461348C
:100A08004134A13400346334C134A3348134A23472
:100A18004034623400346634C134A6348134A73497
:100A2800403467340134A534C034653480346434C8
:100A38004134A43400346C34C134AC348134AD3422
:100A480040346D340134AF34C0346F3480346E3484
:100A58004134AE340134AA34C0346A3480346B343F
:100A68004134AB3400346934C134A9348134A834F6
:100A78004034683400347834C134B8348134B934FB
:100A8800403479340134BB34C0347B3480347A3414
:100A98004134BA340134BE34C0347E3480347F34B7
:100AA8004134BF3400347D34C134BD348134BC3466
:100AB80040347C340134B434C034743480347534F4
:100AC8004134B53400347734C134B7348134B63462
:100AD8004034763400347234C134B2348134B3349F
:100AE800403473340134B134C034713480347034D8
:100AF8004134B03400345034C134903481349134AA
:100B08004034513401349334C03453348034523433
:100B18004134923401349634C034563480345734D6
:100B28004134973400345534C13495348134943485
:100B38004034543401349C34C0345C3480345D34E3
:100B480041349D3400345F34C1349F3481349E3441
:100B580040345E3400345A34C1349A3481349B347E
:100B680040345B3401349934C034593480345834B7
:100B78004134983401348834C0344834803449349A
:100B88004134893400344B34C1348B3481348A3451
:100B980040344A3400344E34C1348E3481348F3476
:100BA80040344F3401348D34C0344D3480344C34A7
:100BB80041348C3400344434C13484348134853431
:100BC8004034453401348734C034473480344634A3
:100BD8004134863401348234C0344234803443345E
:100BE8004134833400344134C13481348134803415
:100BF800403440344001B500350886000130870094
:100C080000300105B1004131FF300105B20041312A
:100C1800FF300105B3004131FF300105B40035084C
:100C28008600013087003108C03F3208C13F3308D1
:100C3800C23F3408C33F782F400135088600013091
:100C48008700813081044131003081044131003016
:100C5800810441310030810435080D3E86000130A1
:100C6800870080300105B10041012408073940019F
:100C78003104B2003508063E86000130870032088C
:100C88008100410152084001B1003508063E860046
:100C98000130870031088104410123081039090710
:100CA8004001B1003508063E860001308700310852
:100CB80081044101250840394001B1003508063E4C
:100CC800860001308700310881043508053E86001A
:100CD800013087008101810A080041015808031981
:100CE800E22E4001350886000130870091308104EA
:100CF80041310030810441310030810441310030FC
:100D08008104410122084001B1003508063E8600F1
:100D18000130870031088100410123084001B100FA
:100D28003508073E860001308700310881004101FF
:100D380024084001B1003508083E860001308700CC
:100D480031088100410125084001B1003508093EFC
:100D580086000130870031088100410126084001E2
:100D6800B10035080A3E860001308700310881004D
:100D7800410127084001B10035080B3E86000130CB
:100D88008700310881004101211CCD2E210801393D
:100D9800CE2E02304001B10035080D3E86000130EC
:100DA800870031088100410128080339031DE02E1E
:100DB80021080339031D0800D8010800400135083F
:100DC800860001308700B130810441310030810450
:100DD80041310030810441310030810441012B0848
:100DE8004001B1003508063E860001308700310811
:100DF800810041012C084001B1003508073E8600FA
:100E0800013087003108810041012D084001B100FF
:100E18003508083E8600013087003108810041010D
:100E2800281C192F210801391A2F02304001B1005E
:100E380035080D3E860001308700310881004101E8
:100E480021080339031D2C2F28080339031D080026
:100E5800D801D80A0800400135088600013087000B
:100E6800A1308104413100308104413100308104D6
:100E78004131003081044101210802394001B100AB
:100E88003508073E8600013087003108810041019E
:100E980022084001B1003508083E8600013087006D
:100EA80031088100410123084001B1003508093E9D
:100EB8008600013087003108810041012408400183
:100EC800B10035080A3E86000130870031088100EC
:100ED800410125084001B10035080B3E860001306C
:100EE800870031088100080041012008553A03199C
:100EF800202E363A0319712E933A03192F2F202EDC
:100F080008001E3086002730870001084301EC00E6
:100F1800ED01EC09ED09EC0A0319ED0A1E30860013
:100F280027308700413101086C07EE006D0803186F
:100F38006D0AEF006E086F04031DBF2F41016A0898
:100F48004001C900410169084001C8000030CA00D9
:100F5800CB00953190258731003A0319F02F4101D4
:100F68006A084001C900410169084001C80094317C
:100F78002C248731F02F1E30860027308700010887
:100F88004301EC00ED01EC09ED09EC0A0319ED0A47
:100F98001E30860027308700413101086C07EE00BB
:100FA8006D0803186D0AEF0010306E066F04031900
:100FB800E92F41016A084001C9004101690840015F
:100FC800C80094312C248731F02F01304201C70723
:100FD8000030C83D0130080000300800FE00120053
:100FE8001E000130FE020030FF3B7F087E0403191B
:040FF8000034F32F9F
:101002007E01E401073040019C0096017C01D00181
:1010120040019D019701CE01CF01D001D101D20142
:101022004201A001A00A02304001B1003108420190
:10103200A10004304001B10031084201A200083091
:101042004001B10031084201A30010304001B1005B
:1010520031084201A40008004001BF005308B70054
:101062005408B8005508B9005608BA0042013D09B3
:101072004001BB0042013E094001BC0042013F0960
:101082004001BD00420140094001BE00BB0A0319F4
:10109200BC0A0319BD0A0319BE0A3B08B7073C087C
:1010A200B83D3D08B93D3E08BA3D3A08031D6328E4
:1010B2003908031D63283808031D63280A303702E4
:1010C200031C080056084201C000400155084201B5
:1010D200BF00400154084201BE00400153084201D2
:1010E200BD000530400157020318D7013F08B70081
:1010F2003708B40057088E318F2640011B08E039AB
:101102009B005708693E8600013087000108B7003E
:1011120037089B040130B7003708D70708004001A1
:10112200310886003208870041310108B5000530D8
:10113200B536890B99283508B600B701B801B9014F
:1011420031088600320887000108BA00BB01BC01E1
:10115200BD010330BA35BB0DBC0DBD0D890BAB28EB
:101162003A08B6073B08B73D3C08B83D3D08B93DD3
:101172003908C2003808C1003708C0003608BF006D
:1011820031088600320887004131811D4529310826
:10119200860032088700413101080339B500B601E3
:1011A200B701B8013F08B9004008BA004108BB00C6
:1011B2004208BC000230B935BA0DBB0DBC0D890B1B
:1011C200DC283908B5073A08B63D3B08B73D3C086C
:1011D200B83D3808C2003708C1003608C0003508DB
:1011E200BF00310886003208870042310108B5008D
:1011F200B601B701B8013F08B9004008BA0041087A
:10120200BB004208BC000830B935BA0DBB0DBC0D9D
:10121200890B05293908B5073A08B63D3B08B73DA1
:101222003C08B83D3808C2003708C1003608C00083
:101232003508BF00310886003208870043310108B3
:10124200B500B601B701B8013F08B9004008BA00BD
:101252004108BB004208BC000830B935BA0DBB0DCD
:10126200BC0D890B2E293908B5073A08B63D3B0853
:10127200B73D3C08B83D3808C2003708C1003608FF
:10128200C0003508BF00C217310886003208870047
:10129200443101080F39B5003508BE0009303E025D
:1012A200031C57290830B5003508BE0031088600F6
:1012B200320887004431011B421733088600340884
:1012C20087003F08C03F4008C13F4108C23F420873
:1012D200C33F3308053EB5000030343DB600350843
:1012E2008600360887003E088100330886003408ED
:1012F20087004631400131088400320885000531FB
:101302003E08B50035080319080012001E00B50B8F
:10131200862908004401C201C20A4001480844016A
:10132200C400400147084401C3004C308600263007
:1013320087004C3084002630850001310030803F28
:10134200C03F1E308600273087001E3084002730C1
:10135200850001310030803FC03F00304001B100C4
:10136200B2000C30B3000030B40045309131E921B5
:101372008931903143208931400119169912B40103
:10138200B501C0309031DA20893102304401C00009
:101392000030C10044014108803A4001C900803058
:1013A2004902031DD729013044014002031CE429EC
:1013B2004E018C1ECB29FF304401C007FF30C13DD6
:1013C2004E018C12CB291F304001C9004908B200DE
:1013D200B3010F3091314E218931803097319E27F0
:1013E2008931440142054001C90049084401C20053
:1013F20002304001C90049084401BB00E03040010D
:10140200C90049084401BC00BD01BD0A3B3040018E
:10141200B4000230B5000330C9004908B6002830D4
:101422009131B42189314401C50145304001B400F4
:101432000230B500B601B60A70309131B42189315B
:101442004401451545304001B4000230B500B601F3
:10145200B60A60309131B421893144014408400117
:10146200B500440143084001B4000830C9004908EE
:10147200B60020309131B421893144014308083E3D
:101482004001B40000304401443D4001B5000C303D
:10149200C9004908B60000309131B42189314401B4
:1014A2004308143E4001B40000304401443D400171
:1014B200B5000C30C9004908B60010309131B42192
:1014C20089314401C501FF304001C9004908B20019
:1014D200B3012C3091314E21893123304001C900B2
:1014E20049084401C500451545304001B4000230A9
:1014F200B500B601B60A2B309131B42189310030E2
:1015020097319E27440142054001C9004908440120
:10151200C2004E011616080040013108860032084A
:101522008700403FB500413FB600423FB700433F0E
:10153200B800B81F9E2A01309F2A0030B90039082E
:10154200C5003108860032088700403FB500413FA0
:10155200B600423FB700433FB800381FB22A0130FD
:10156200B32A0030B9003908BE004508031DBF2A5E
:101572000030BD000030BC000730C42A1F30BD005F
:10158200FF30BC00FF30BB00FF30BA0031088600DC
:1015920032088700403FB500413FB600423FB700E6
:1015A200433FB8003A083505C1003B083605C20082
:1015B2003C083705C3003D083805C4004208C7008F
:1015C2004108C600450803194B2B3308033EB500FA
:1015D2000030343DB60035088600360887004608DC
:1015E20081004708B5003308023EB6000030343DA2
:1015F200B7003608860037088700350881004108A1
:10160200B5004208B6004308B7004408B8001030DD
:10161200B836B70CB60CB50C890B092B3608C700C7
:101622003508C60046080339B5003308013EB60046
:101632000030343DB7003608860037088700350889
:10164200810046081C39B5000230B535FF3E031D46
:10165200262B3535B6003308860034088700413121
:101662003608810733088600340887004131811526
:101672004708B6004608B5000530B636B50C890BEA
:101682003E2B3508B7003308860034088700370838
:1016920081007F2B4708B6004608B500B636B50C68
:1016A200B636B50CB636B50C3508B7003308860029
:1016B200340887003708810046080739B50004302E
:1016C200B535FF3E031D612B3535B6003308013EAB
:1016D200B7000030343DB80037088600380887006C
:1016E20036088100330886003408870043318101BF
:1016F2003308860034088700423181013E08031D09
:101702008E2B310886003208870045310108B5006A
:10171200B6013508BF003608972B3108860032081B
:101722008700453140300104BF000030C00033085B
:10173200043EB5000030343DB60035088600360858
:1017420087003F088100330886003408870045314E
:101752004001310884003208850005310008B500D7
:101762003508031908003108840032088500063163
:1017720012001E00B50BB92B08004101DC0140012B
:10178200B301B401003034021A30031933020318D2
:10179200E02B3308A03E8600013087000108B1002B
:1017A20031084101DC0701304001B3070030B43D8C
:1017B200003034021A3003193302031CCA2B4301CE
:1017C2003A0841015C060319E82BDB01DB0A5F08DA
:1017D200031DFB2B5B08031DFB2B55304301200629
:1017E2000319082C633020060319082CF030200658
:1017F2000319082CFF3044018D0000308C00400199
:10180200DC014101E401E301DB01DF0108004301E6
:101812002008410162060319312C4001B501B601CD
:101822003608803AB10080303102031D1A2C1B3079
:1018320035020318312C40013508A03E860087018D
:1018420081010130B5070030B63D3608803AB1005B
:1018520080303102031D2F2C1B303502031C1C2C3F
:10186200430120084001B10031084101E200152D79
:1018720063304001B10031084101A000F33021057D
:101882004001B100430121080C3940013104B2008A
:1018920032084101A100F33028054001B1004301A3
:1018A20028080C3940013104B20032084101A80075
:1018B200A11C852C430122084001B10031084101DD
:1018C200A200430123084001B10031084101A300F5
:1018D200430124084001B10031084101A400430141
:1018E20025084001B10031084101A5004301260845
:1018F2004001B10031084101A6004301270840011F
:10190200B10031084101A700A81C080043012B08BF
:101912004001B10031084101AB0043012C084001F4
:10192200B10031084101AC0043012D084001B10072
:1019320031084101AD000800F0304001B10031082A
:101942004101A000FD3021054001B1004301210801
:10195200023940013104B20032084101A1002118CC
:101962000800430122084001B10031084101A200F0
:10197200430123084001B10031084101A3004301A2
:1019820024084001B10031084101A40043012508A7
:101992004001B10031084101A50008005530400165
:1019A200B10031084101A000F83024054001B10026
:1019B20043012408073940013104B20032084101D1
:1019C200A400073024054001B1003103031DF12CAE
:1019D2004101A4012414FE304001B1003108CE05BA
:1019E200BF30410125054001B100430125084039BE
:1019F20040013104B20032084101A5001F302B051D
:101A02004001B10043012B08E03940013104B2002A
:101A120032084101AB00AB1E0800CF304001B100DB
:101A220031084101AB05080043012008553A03196A
:101A3200CF2C363A0319392C933A03199D2CCF2C0B
:101A4200080040015E08031D08004E0116122E30E8
:101A52004001A0002008F300F401F40AA030913103
:101A620006218D312C30F3000030F400F501F50A27
:101A72002C3091311E218D314001AC1E642D2D3050
:101A8200F3000030F400F501F50A2D3091311E21EA
:101A92008D3140012D1F522D01304201C907003006
:101AA200CA3D4001AD1F5A2D01304201C907003025
:101AB200CA3DC0304001A0002008F100F2012D30E3
:101AC2009031C5208D3140012E1CC82D4C3086002E
:101AD200263087000108A000A101A009A109A00ADF
:101AE2000319A10A4C3086002630870041310108D3
:101AF2002007A20021080318210AA30010302206A1
:101B020023040319C32D4C3086002630870041314F
:101B120001080F39A000A1012008F0002108F100FE
:101B22000D30F2000030F3009131CE218D314E3074
:101B32004001A2002630A30070082207A400710809
:101B4200233DA5002408A6002508A7002708F400C5
:101B52002608F3000D30A0002008F5006130913115
:101B62001E218D3101304001A0004C30860026300C
:101B7200870041312008810701304201CB07003044
:101B8200CC3DC82D01304201C5070030C63D4001A1
:101B9200AE1C2C2E4C308600263087000108A00097
:101BA200A101A009A109A00A0319A10A4C308600CB
:101BB20026308700413101082007A20021080318BE
:101BC200210AA3001030220623040319272E4C30C9
:101BD200860026308700413101080F39A000A1019B
:101BE2002008F0002108F1000D30F2000030F3006F
:101BF2009131CE218D314E304001A2002630A3001A
:101C020070082207A4007108233DA5002408A8003B
:101C12002508A9002908F4002808F3000D30A000C7
:101C22002008F500713091311E218D3101304001C3
:101C3200A0004C3086002630870041312008810701
:101C420001304201CD070030CE3D2C2E0130420141
:101C5200C5070030C63D40012E19832E1E30860076
:101C6200273087000108A000A101A009A109A00A4C
:101C72000319A10A1E30860027308700413101086E
:101C82002007A20021080318210AA3002208230426
:101C92000319832E1E3086002730870001080F3972
:101CA200A000A1012008F0002108F1000D30F2008F
:101CB2000030F3009131CE218D3120304001A2005D
:101CC2002730A30070082207A4007108233DA50055
:101CD2002408AA002508AB002B08F9002A08F800FE
:101CE2003030913166218D3101304001A0001E302B
:101CF2008600273087002008810701304201CF0784
:101D02000030D03DFF304001A0002008F100F20178
:101D12002C309031C5204E01161608004001B60045
:101D22009431B2248E31EA2F40015B08031DA02EAC
:101D3200F030B50035084101AB052B14F62F4001F8
:101D42005A08031DAB2EF030B50035084101AB0532
:101D5200AB14F62F40015908031DB62EF030B50022
:101D620035084101AB05AB15F62F40015808031D9C
:101D7200C12EF030B50035084101AB052B15F62F09
:101D8200F0304001B50035084101AB05F62F4101A5
:101D92002108031D532F2108031D532F2108031D62
:101DA200532F40015B08031D012F07304101240519
:101DB2004001B50002303506031DE62E41012B0815
:101DC2003039031DE62E2B16EC2ECF304001B50024
:101DD20035084101AB05A401A414FD304001B50052
:101DE2003508CE05EF30B5003508D205FB30B50019
:101DF2003508CE05FE30B5003508CF054E14F62F56
:101E02005A08031D192F903132208E31003A031DDA
:101E1200192F4101A40103304001B50035084101E9
:101E2200A4044001CE14EF30B5003508D205462F88
:101E320040015908031D2E2F903132208E31003A75
:101E4200031D2E2F4101A401241540014E15EF3030
:101E5200B5003508D205FD30472F40015808031D53
:101E6200F62F903132208E31003A031DF62F4101B8
:101E7200A40105304001B50035084101A404400128
:101E82005216FD30B5003508CE05FB30B5003508D9
:101E9200CE05FE30B5003508CF05FE30B500350859
:101EA200CE05F62F40015216CE144E154F144E1485
:101EB200FD30B5003508CF05FB30B5003508CF053C
:101EC200E72F41012108031D912F2208031D912FA5
:101ED2002308031D912F40015B08031D972F9031AA
:101EE20032208E31003A031D972F4101A4010630A2
:101EF2004001B50035084101A404EF304001B500AE
:101F02003508D205FD30B5003508CE05FB30B500E9
:101F12003508CE054F14FE30B5003508CE05972F93
:101F220040015216CE144E154F144E1440015A0859
:101F3200031DA22F34080D3E860001308700811751
:101F4200AB2F7F30B50034080D3E8600013087008C
:101F520035088105410154080319E72F073024058C
:101F62004001B500063035060319E72F073041015D
:101F720024054001B500023035060319E72F590840
:101F8200031DD12F903132208E31003A031DD12F03
:101F9200FB304001B5003508CF05CF141030E22FD9
:101FA20040015808031DF62F903132208E31003A3D
:101FB200031DF62FFD304001B5003508CF054F1542
:101FC2000830B50035084101D200F62F4101D20197
:101FD200F62F40013608013A0319952E033A0319E8
:101FE200C82E013A0319622FF62F4001DB01DA01F4
:0E1FF200D901D8014101D701D601D50108005F
:10205E0001340534013441012B0880390800400158
:10206E009916203097319E270800F0007008430122
:10207E008C000F180800402843019001C0308F00DB
:10208E002030900008004001B100310843018C005F
:10209E000F1808004F286400800101310130FE0244
:1020AE000030FF3B7F087E040319003453280B13C6
:1020BE0001307E01D4004E010C1216164001981309
:1020CE0051018C1790313620630008000134023420
:1020DE000434083410340134023404340834103417
:1020EE00013402340434083410344001981792310C
:1020FE0093224E018C12961603307E01D4004E01AF
:10210E000C1216160B178B17080041015A080319EB
:10211E00952894316F2490314101DA015908031941
:10212E0008008B31BE234101D90108007208031942
:10213E0008000130F2027008840071088500000862
:10214E0043018C000130F0070030F13D0F189D283F
:10215E00AD287208031908000130F202FF30430166
:10216E008C000F1CB82870088600710887000C08B8
:10217E0081000130F0070030F13DB028F30040013E
:10218E001912053090313C209031730890313C206B
:10219E009031710890313C209031720890313C2082
:1021AE004001191608004001B70019123708903186
:1021BE004A20903140013408B1000030B200350899
:1021CE00B6003608B3009031EF2040011916080012
:1021DE00400133080319080001304001B3023108F1
:1021EE00840032088500000843018C000130400154
:1021FE00B1070030B23D43010F18EF280229F60057
:10220E007308F5007508F700400119127608903131
:10221E003C2091317708F0000030F1007408F50091
:10222E007508F2009031B020400119160800F70031
:10223E0040011912033090313C20913177089031D2
:10224E003C2091317408F1007308F0007508F60017
:10225E007608F2009031B020400119160800F70000
:10226E0040011912023090313C20913177089031A3
:10227E003C2091317408F1007308F0007508F600E7
:10228E007608F20090319D20400119160800400199
:10229E00B4001912053090314A20913140013408B2
:1022AE0090314A2091314001320890314A209131CB
:1022BE004001330890314A20400119160800FC00F5
:1022CE007908F4007808F3000D30FA007A08F5006A
:1022DE007C08013E9131362191310830FA007A089E
:1022EE00F1000830FB007B08F2007C089031C5201D
:1022FE000800400133080319080001304001B30201
:10230E00FF3043018C000F1C8A29400131088600E2
:10231E003208870043010C08810001304001B107EB
:10232E000030B23D80294001B800191203309031BF
:10233E004A2091314001380890314A2091314001B4
:10234E003508B2003408B1003608B7003708B300BC
:10235E00913180214001191608004001B800191270
:10236E00023090314A2091314001380890314A2094
:10237E00913140013508B2003408B1003608B7007B
:10238E003708B3009031EF20400119160800F40110
:10239E00F501701CD6297208F4077308F53D01305B
:1023AE00F235F30D890BD7290130F136F00C890B7C
:1023BE00DC2970087104031DD0297508F10074081A
:1023CE00F00008004001B7003708B5003508B60028
:1023DE000130B3020030B43B330A0319340A031937
:1023EE0008003108B5003608860001308700350830
:1023FE0081000130B5003508B607EF294001B5015F
:10240E00B601311C0E2A3308B5073408B63D01302B
:10241E00B335B40D890B0F2A0130B236B10C890BCE
:10242E00142A31083204031D082A3608B200350872
:10243E00B10008004001BD003A08B5003908B400EB
:10244E000D30BB003B08B6003D08013E9131B42172
:10245E00923108304001BB003B08B2000830BC008E
:10246E003C08B3003D0891314E21080081341034F0
:10247E00FF34903400340834003400340034003417
:10248E00003400340034003481341034FF3490347E
:10249E000034083400340034003400340034003486
:1024AE00003400344401BB013C304001C300023013
:1024BE00C4009531E4259231003A031D0800440111
:1024CE00BB01BB0AFF30BC05FF30BD05FF30BE05AA
:1024DE001F30BF053C308031D62092315B2AE03070
:1024EE004001B30033089D05E030B3003308980572
:1024FE0031084E3E8600870101081F39B3003308AC
:10250E009D043108203E86000130870001089F3966
:10251E00B3003308980408004C308600263087003C
:10252E004C3084002630850001310030803FC03FA2
:10253E001E308600273087001E308400273085002D
:10254E0001310030803FC03F400199120030973179
:10255E009E2708004101D4017E01CE0140019A015F
:10256E00BF30940001307E01CF00D90140019B01A4
:10257E00E03095003C307E01D4000F3045018E04D2
:10258E008E130E088F3920388E0096308D004E0136
:10259E009A14901008001B30410165020318FF2A9F
:1025AE0040015D08203E860002308700010893310D
:1025BE003523F40042011E087406FE3974069E008F
:1025CE0040015D08203E860002308700010842016E
:1025DE009A000130F40074084001DD071B305D02E3
:1025EE000318DD010130F40074084101E50708000D
:1025FE004E011912080042019D1C072B1D121D16BB
:10260E001D080139F40019089331352393317406EE
:10261E000319142B4101DF01DF0A42011908F400EE
:10262E0040015C08A03E86000130870074088100DE
:10263E000130F4007408DC071B305C06031D2A2BE6
:10264E004101D901D90A1B3040015C020318DC019B
:10265E000130F40074084101E3070800F100410164
:10266E00E101F201F3017308803AF000803070024C
:10267E000830031972020318622B0130F000720A3F
:10268E00492BF035890B482B700871050319542B13
:10269E000130F00070084101E1070130F20700300F
:1026AE00F33D7308803AF000803070020830031951
:1026BE007202031C442B4101611C672B0130080080
:1026CE00003008004101EB01EC019431F624933106
:1026DE009231B1229331400113140030C70098306B
:1026EE00C80089318B2193319331A72393319331D4
:1026FE00E92393318831012093318B170B174E014B
:10270E0016160C120B1096161A1444010E14D8300D
:10271E0088312D2093319631EA26933190318C20D9
:10272E009331953141259331D830973144279331E8
:10273E0096319026933196313A26933164008E2B42
:10274E0000304001B100B2000F30B3000030B400D1
:10275E00BB309131E921933100304001B100B2001C
:10276E000330B3000030B4005C309131E921933175
:10277E0000304001B100B2000330B3000030B400AD
:10278E0059309131E921933100304001B100B2004E
:10279E000330B3000030B40056309131E92193314B
:1027AE0000304001B100B2000530B3000030B4007B
:1027BE0051309131E92193319331E92393319031A5
:1027CE007C2008004001141394174101D9014E01D9
:1027DE0099121912083042019F0000309C00CE3031
:1027EE009B009C01D0309D0064309E004101E601AB
:1027FE004001DD011B30B10031084101E50040010F
:10280E00DC014101E401E3014E0199164101CD01C4
:10281E00CE014E01101001304401910026308E0081
:10282E004E011A1444010E1455304001B100310806
:10283E004101A00020084001B10031084101E20031
:10284E00A401A40AD801D80A08001E308600273039
:10285E008700413101080F394301E600E7016608A0
:10286E004001B100430167084001B2000D30B300D2
:10287E000030B40092310522943120304301E8003B
:10288E002730E9004001310843016807EA004001A2
:10289E0032084301693DEB006A084001CA0043015A
:1028AE006B084001CB004908B2004808B1004B0844
:1028BE00B4004A08B3008A318D2201304301E6008C
:1028CE001E308600273087004131660881070800D8
:1028DE004101E501E6014001DD014101DD0140015B
:1028EE00B201B301003033021A3003193202031859
:1028FE00A22C3208A03E860087010108B1003208E2
:10290E00203E860002308700310881003208A03E4A
:10291E00860087010108B10031084101DD07013051
:10292E004001B2070030B33D003033021A300319B4
:10293E003202031C802C41015D084001B1003108B8
:10294E004101BA005D084001B10031084401BA00EE
:10295E004E01191608004001B201B3013308803A46
:10296E00B10080303102031DBE2C1030320203182C
:10297E00080040015B35B1003108DB0003100E1D6D
:10298E0003140030093DB1003108DB075A35B100A0
:10299E003108DA0003108E1D03140030093DB1001A
:1029AE003108DA075935B1003108D90003100E1E6F
:1029BE0003140030093DB1003108D9075835B10074
:1029CE003108D80003108E1E03140030093DB100EB
:1029DE003108D8070130B2070030B33DB52C8B1348
:1029EE000B138030400198007E01B8014001920126
:1029FE007E01C30101304001990004309300013083
:102A0E007E01C400CE0140019A01BF309400013016
:102A1E007E01CF00D90140019B01E03095007E017F
:102A2E00E401073040019C0096017C01D001400179
:102A3E009D01970116307D01CB000F307E01A7005E
:102A4E000A307D01C60015307E01990016309B00BC
:102A5E0067304F0198003F309900A1309A003E3008
:102A6E009B0043304B019F0087309E007C309D00C1
:102A7E009C010800400153084301E6004001540840
:102A8E004301E700400155084301E80040015608A4
:102A9E004301E900420135094301EA0042013609CA
:102AAE004301EB00420137094301EC0042013809B2
:102ABE004301ED00EA0A0319EB0A0319EC0A0319A4
:102ACE00ED0A6A08E6076B08E73D6C08E83D6D08FD
:102ADE00E93D6908031D7D2D6808031D7D2D6708DE
:102AEE00031D7D2D2D306602031C08004001560883
:102AFE004201B800400155084201B7004001540898
:102B0E004201B600400153084201B50092315922EC
:102B1E0008009E2D3030962D4030962D50304001BD
:102B2E00CC004C084401BC00AF2D01300800400120
:102B3E004B08003A0319A42D9C2D4A08003A03199C
:102B4E00912D013A0319932D033A0319952D9C2DBE
:102B5E004E0116124401BB01BB0A3D304001B400C8
:102B6E000230B500B601B60A44013C0891319A21F3
:102B7E0095314401BD19DF2D40014908B2004808C6
:102B8E00B1003E30B3000230B4008A318D2295314F
:102B9E003E304001B9000230BA0044013C08923187
:102BAE00212201304201CF070030D03D4401BB014C
:102BBE004E01161644013B0808004C3086002630A4
:102BCE00870001084001C500C601C509C609C50A2E
:102BDE000319C60A4C3086002630870041310108A1
:102BEE004507C70046080318460AC80047084804A8
:102BFE000319382E4C3086002630870001080F3915
:102C0E00C500C6014508B1004608B2000D30B3003C
:102C1E000030B4009231052295314E304001C7008C
:102C2E002630C80031084707C9003208483DCA009F
:102C3E004908CB004A08CC004C08B2004B08B10042
:102C4E004408B4004308B30088319020013040019D
:102C5E00C5004C30860026308700450881070030BD
:102C6E00080001300800400153084301E60040010E
:102C7E0054084301E700400155084301E8004001B4
:102C8E0056084301E90042012D094301EA004201C1
:102C9E002E094301EB0042012F094301EC004201D2
:102CAE0030094301ED00EA0A0319EB0A0319EC0A95
:102CBE000319ED0A6A08E6076B08E73D6C08E83D64
:102CCE006D08E93D6908031D762E6808031D762EF2
:102CDE006708031D762E64306602031C080040014F
:102CEE0056084201B000400155084201AF004001B4
:102CFE0054084201AE00400153084201AD004001AC
:102D0E000E1C080090315E2096319331A723963128
:102D1E00862E40015308B1005408B2005508B30086
:102D2E005608B400420131094001B5004201320992
:102D3E004001B600420133094001B7004201340997
:102D4E004001B800B50A0319B60A0319B70A0319E8
:102D5E00B80A3508B1073608B23D3708B33D380812
:102D6E00B43D3408031DC42E3308031DC42EE830B1
:102D7E0031020330323B031C080056084201B400F6
:102D8E00400155084201B300400154084201B2000F
:102D9E00400153084201B100E02E410152080319CF
:102DAE000800CF01CF0A0800D201CF010800CF01E1
:102DBE00080041014F08003A0319D42E013A0319B5
:102DCE00DB2EDE2E080040015308B4005408B50077
:102DDE005508B6005608B700420139094001B8003F
:102DEE0042013A094001B90042013B094001BA00D3
:102DFE0042013C094001BB00B80A0319B90A031984
:102E0E00BA0A0319BB0A3808B4073908B53D3A089F
:102E1E00B63D3B08B73D3708031D1F2F3608031D6F
:102E2E001F2F3508031D1F2F02303402031C08000C
:102E3E0056084201BC00400155084201BB0040014A
:102E4E0054084201BA00400153084201B90005304E
:102E5E00410150020318D00150084001B400B501E1
:102E6E003408B1003508B2009231762201304001AB
:102E7E00B40034084101D00708004001CD005308CA
:102E8E004401CB00400154084401CC0040015508D8
:102E9E004401CD00400156084401CE0042012909EB
:102EAE004401CF0042012A094401D00042012B09FE
:102EBE004401D10042012C094401D200CF0A03196A
:102ECE00D00A0319D10A0319D20A4F08CB075008AA
:102EDE00CC3D5108CD3D5208CE3D4E08031D812FED
:102EEE004D08031D812F4C08031D812F32304B02DC
:102EFE00031C0800400156084201AC004001550871
:102F0E004201AB00400154084201AA00400153089F
:102F1E004201A90040014D088531FE259731D83078
:102F2E004101E9000130EA008731852708004001A0
:102F3E00C500C601E030B9003908B2004508BA0034
:102F4E003A08B3000F3091314E21973140015608A7
:102F5E00C4005508C3005408C2005308C1005308EA
:102F6E00B9005408BA005508BB005608BC00410908
:102F7E00BD004209BE004309BF004409C000BD0A9E
:102F8E000319BE0A0319BF0A0319C00A3D08B9077F
:102F9E003E08BA3D3F08BB3D4008BC3D3C08031D02
:102FAE00FE2F3B08031DFE2F3A08031DFE2F053092
:102FBE0039020318FE2F5E30B4000030B500B601A2
:102FCE00B60A0E3091319A219731E0304001B900A6
:102FDE003908DE055E084506031DF72F0130F82F70
:102FEE000030B9003908C60046080319B62F460846
:102FFE00080000340034FF3400340734E334FF3467
:10300E00FF3400340834803400340034083455342E
:10301E00003400340834803400340734EB34203468
:10302E0080340234A934553496340234A9345534DC
:02303E00B634A6
:020000040001F9
:0A000E008C1FFF37C507FF3FFF3FBF
:00000001FF
