:1000000000020400000000000418000008180000AE
:100010000C18000010180000141800001818000038
:100020001C180000FA02000020180000241800002C
:10003000281800002C1800003018000034180000A8
:10004000381800003C180000401800004418000058
:10005000481800004C180000501800005418000008
:1000600058180000FA0200005C1800006018000038
:1000700064180000681800006C180000FA02000004
:10008000FA020000FA020000701800007418000064
:10009000781800007C180000801800008418000008
:1000A000881800008C1800009018000094180000B8
:1000B000981800009C180000A0180000A418000068
:1000C000A8180000FA020000FA020000FA0200007C
:1000D000FA020000FA020000FA020000FA02000030
:1000E000FA020000FA020000FA020000AC18000058
:1000F000B0180000FA020000FA020000FA02000044
:10010000FA020000FA020000FA020000B41800002F
:10011000B8180000FA020000FA020000FA0200001B
:10012000FA020000FA020000FA020000BC18000007
:10013000C0180000C4180000FA020000FA02000013
:10014000C8180000FA020000FA020000FA020000DB
:10015000FA020000FA020000FA020000CC180000C7
:10016000FA020000FA020000FA020000FA0200009F
:10017000FA020000FA020000FA020000FA0200008F
:10018000FA020000FA020000FA020000FA0200007F
:10019000FA020000FA020000FA020000FA0200006F
:1001A000D0180000D4180000D8180000FA0200008F
:1001B000FA020000FA020000FA020000FA0200004F
:1001C000FA020000FA020000FA020000FA0200003F
:1001D000FA020000FA020000FA020000FA0200002F
:1001E000FA020000FA020000FA020000FA0200001F
:1001F000FA020000FA020000FA020000FA0200000F
:10020000FA020000FA020000FA020000FA020000FE
:10021000FA020000FA020000FA020000FA020000EE
:10022000FA020000FA020000FA020000FA020000DE
:10023000FA020000FA020000FA020000FA020000CE
:10024000FA020000FA020000FA020000FA020000BE
:10025000FA020000FA020000FA020000DC180000B6
:10026000E0180000FA020000E4180000E81800009E
:10027000EC180000F0180000F4180000F818000056
:100400000FC021000EFF24000E0188000000000034
:10041000000020000000E000020032000001200087
:100420002002880014000700740007000000E000AC
:1004300003003A00400321000100200002003700C1
:100440000000200001002000810F70000100320038
:100450000F000700000020000000E0000200320052
:1004600000000200000000001E0602000000000064
:100470000040DA000000FE00A00620000000E000BE
:1004800002003200002020009001880000000600D9
:10049000A1028800800478000000EB001F003700F4
:1004A000E284440054A0B4009905BA00E2844400F8
:1004B00054A0B4009906BA00E284440054A0B400E9
:1004C0000006EB00476FDE00FD07B200AE018800BA
:1004D000636CE10003003A000AD801000000EB0061
:1004E0000E003700606CE10008003A00004DEB00A0
:1004F0000A05E800020039003420EC000AF0A000F0
:100500008B05E900F9FF3E00040037006168E10057
:10051000010032000086EB000B00070019C7BA008B
:100520000E04E0001905BA0003003A000A00E000DA
:10053000DBFF3A0000000600FE07B200AE028800B2
:100540008A047800F5FF37000CD0A300E20F4D00BD
:100550001C00390089027800354DBA000A05E80010
:10056000020039003420EC000AF0A0008B05E900FD
:100570000F003200254DBA000A05E80002003900DC
:100580003420EC000AF0A0008B05E90008003200DE
:100590000C00E0000600320015CDBA000A05E800A4
:1005A000020039003420EC000AF0A0008B05E900BD
:1005B0008984E80054A0B4000B00E000E2FF3A0098
:1005C000000006009902BA00055D78008B05E9007D
:1005D000F7FF3200C82ADE00055D78008B05E900D0
:1005E000F3FF32000C00E000F1FF320019DDBA0029
:1005F000EEFF37000040DA000000FE0000000500BA
:1006000003000000A84100000000000000000000FE
:100610000100000008C00000808000008080000011
:100620008080000080800000C807000000FF0000FC
:1006300000000000000000006B07000000800000C8
:1006400000000000000000000000000000000000AA
:10065000000000000000000000000000000000009A
:10066000000000000000000000000000000000008A
:10067000000000000000000000000000000000007A
:10068000000000000000000000000000000000006A
:10069000000000000000000000000000000000005A
:1006A000000000000000000000000000000000004A
:1006B00000000000000000000F000000000000002B
:1006C00000000000000000004032000000FF0000B9
:1006D00002100000889FBE008A9FBE000880210093
:1006E000090020000080EB00A90288009885BA006C
:1006F0001805BA008A40780084060700C850DE005A
:10070000820607008B407800800607008040EB00DF
:100710007E06070062044400E0844C00E2FF2400EF
:1007200013002000820F5400838F5C00EEFF3A001C
:10073000E1FF24001181BA009100BA004809DD00F0
:10074000C808DE0082807000010050004F05BE0026
:100750004F04BE0000000600DEFF070000F0A70007
:100760000000EA000000E9004F00DE0002F0B700E0
:100770000821EF000621EF000108A9000000060093
:100780000400FA000410E2000F003A00D1FF070055
:1007900071C4B300C1FF9F00A1CFB300D1FF9F0080
:1007A000C800DE00E1FF9F00F0FF9F00648057005B
:1007B000E0B8880040002000F0B888008000EB001E
:1007C000807121005E0407000080FA00000006002E
:1007D0000400FA0072C4B300C2FF9F00D0FF9F0064
:1007E000E1FF9F0064805700E0B8880030002000DF
:1007F000F0B888008000EB008071210050040700F1
:100800000080FA00000006008040EB000410E200C7
:100810000100320080C0EB00D0CFB300ECFF070036
:1008200070CFB3000AF0B700CBFF3700889FBE003F
:100830008A9FBE0050052000A10A2000B6040700D0
:100840001AC0B30008802100090020000800BE0083
:10085000D90407008A85FB00808565000B45780078
:100860000080200001002000080440008984480026
:100870000000250011002000800F5400818F5C00D3
:10088000F2FF3A00A90407000B4078004F05BE00B4
:100890004F04BE00000006000410E20005003A000C
:1008A0000270EF00E1FF07008040EB000004E00071
:1008B00001003A0080C0EB0080CFB300C4FF3700D6
:1008C000EC874700889FBE008A9FBE008C9FBE00B9
:1008D0008E1F7800000678003D808000648046000E
:1008E000808F500067003A003C4090000080FB0081
:1008F0008000EB001C84FB008004EB00C844DD009A
:10090000080020000004440081844C001C4090003A
:100910008080FB000000200008044000898448001B
:100920002C4190000281FB008001EB004818DD00A3
:10093000C810DE00810070004810DD00080440008F
:100940008984480050052000A10A20007204070095
:100950001EC0B300430037006C4590008A85FB0041
:100960000A0020005C4190000281FB008001EB0046
:100970004818DD00C810DE00810070004810DD005E
:100980000A0540008B8548004C4090000080FB0029
:100990008000EB000A0540008B8548001C4B90004E
:1009A0008683FB00060020000C4990000281FB00BA
:1009B0008001EB004818DD00C810DE0081007000E7
:1009C0004810DD0006034000878348007C4090000B
:1009D0000080FB008000EB00060340008783480096
:1009E0000602BE000A01BE000800BE00F6B79F0066
:1009F00087BF9F0092040700004178000800BE00F6
:100A0000E2B79F005F0407000002BE0062004400DE
:100A1000E0804C00C4B79F00D5B79F005904070081
:100A20004FB29700DFB297006FB197007FB3970086
:100A30008FBB97008A0F52008B8F5A0004003A0038
:100A400066064600860F5000878F5800010032006E
:100A5000FFFF370002476700E68656006404440043
:100A6000E0844C00E58F5600BBFF3E002F040700DA
:100A700080C0EB000E04E000030032008040EB0079
:100A80000100370080C0EB0090CFB30050FF07009B
:100A90004F0778004F06BE004F05BE004F04BE0052
:100AA000CF00B10000000600881F78001001780018
:100AB0009001900001F02E00810F5100E08F59004D
:100AC0005C003A002002900071C4B30094CF100083
:100AD00058003A00B0009000E18F500055003600F9
:100AE00002722100104890000049780014419000E3
:100AF000024078000A50B600824F50004D003A0084
:100B00000821EF000621EF000108A9000081FB0089
:100B10008001EB00020FB1000380B100ED0F510026
:100B2000E08F59003E003E00020601000D00370034
:100B30003B0037003A00370012003700380037001A
:100B40003700370036003700350037002A003700FD
:100B50002B0037002E003700250037002600370015
:100B60002D00370040722100E0B8880060002000AE
:100B7000F0B888008000EB0080712100700307004E
:100B80002C003700244090000004E00015003A00DB
:100B90000430EF00A8722100E8B88800800020002F
:100BA000F0B888008000EB0080712100640307002A
:100BB000208080004300DD008080E8008100440048
:100BC0009180FB00C808DD00630040000004440081
:100BD0001880FB0001007000308088000AF0EF00F0
:100BE0001400370080C0EB0030CFB3001000370096
:100BF0000000FE000F00370027FF07000D00370040
:100C00008180E9000480E8002DFF0700090037001B
:100C1000DBFE070007003700FBFE0700050037007A
:100C200071CFB300A20021000149780080C0EB0021
:100C3000E7FE07004F0478000000060040040700AC
:100C40005005070000302800C4020700F802070022
:100C500036050700C0FE07000821EF000621EF005F
:100C60000108A9004F050700008088000060FE0011
:100C7000B80207000080800053050700E90F50000C
:100C800004003600A00020000030B4009F030700DD
:100C900001003700930307000250E2000700320012
:100CA0000108AB0005003200034EAB0003003A0020
:100CB000A2040700001A020000000000A5040700BB
:100CC000EAFF3700E00021000048EB0000000600CA
:100CD000100005001400FA000202BE0074815700E3
:100CE000C2BF9F0002C02E0003002000A2BF9F00D1
:100CF000B3BF9F0072C0B300E2FF9F0080C1EB0052
:100D0000C3EF9F00D1EF9F00E3EF9F00CFB89700A4
:100D1000B3409800CFB89700C3409800CFB8970071
:100D2000D4409800C828DD004821DE000281700010
:100D3000C829DE00CFB89700E2409800402ADE00C4
:100D4000CFB89700F440980081002000D1BF9F00E9
:100D5000C0FF9F008000EB006C805700F802070086
:100D60000080FA00000006001400FA0074805700AA
:100D7000C0BF9F0000C02E0001002000A0BF9F0048
:100D8000B1BF9F0070C0B300E0FF9F0010C1B3006F
:100D9000C0EF9F00A001210010407800D0EF9F001D
:100DA0009001210010407800E0EF9F0000C0EB00B0
:100DB000CFB89700B0409800CFB89700C0409800D7
:100DC00000012100CFB8970010417800D240980070
:100DD0001001780090019000C818DD004811DE0075
:100DE00002817000C819DE00CFB89700E240980079
:100DF000CFB8970020409000F0409800800020007D
:100E0000D0BF9F00E001210010407800C0FF9F008C
:100E10008000EB006C805700C90207000080FA00D8
:100E2000000006001400FA0074805700C0BF9F0045
:100E300000C02E0001002000A0BF9F00B1BF9F0096
:100E400070C0B300E0FF9F0030C1B300C0EF9F004F
:100E5000A0808000D0EF9F004800DE00E0EF9F0000
:100E6000810121004FB897009140780031409800EF
:100E700080C0EB004FB8970041409800000121006E
:100E8000CFB8970010417800D24098001001780048
:100E900090019000C818DD004811DE00028170004A
:100EA000C819DE00CFB89700E2409800CFB897008D
:100EB00020409000F040980080002000D0BF9F00AC
:100EC000E001210010407800C0FF9F008000EB008F
:100ED0006C8057009A0207000080FA0000000600AC
:100EE0000C00FA00881F78009101210091407800E1
:100EF0000181FB000201E900E711B900A680800032
:100F00000202530073002000E60F520001003E0071
:100F100084017800E500210087C0B30095CF13005D
:100F200040003A00A003900097CF500037003A00ED
:100F300002844100976F2000870F540033003E0069
:100F400002024200860F520030003A00B604200030
:100F5000B680880082824200F08242000001EB00ED
:100F6000040037000201E800200390000203430060
:100F7000966A7800830F5100FAFF3A008001210041
:100F800010407800920121000149E80080CF500014
:100F900013003900808080009180800090BF9F0006
:100FA000A1BF9F0066004100B0BF9F00C4BF9F006B
:100FB0006400410010407800A0FF9F0065004100E0
:100FC00010407800B0FF9F006E805700B6FE07000B
:100FD00040012000B080880051C0B30009003700F4
:100FE000B10121001140E800804878008100E9004B
:100FF000914F50000B00390040012000B080880064
:1010000031C0B300E00021000500370021C0B3006B
:10101000C00121000148780061C0B3006E0050009B
:10102000014878004F0478000080FA0000000600B4
:10103000881F7800B08080000000E00009003200C6
:101040000000E900B080880006003A0031C0B3001B
:10105000C00121000148780061C0B3006E0050005B
:1010600001487800E800210018407800E54F500062
:101070000D003200E64F50000D003200E34F5000EB
:1010800015003A0038FF07000004E00012003A00A3
:10109000ED00440080487800D0072000B080880030
:1010A00080C0B3000B0037005EFF07000700370069
:1010B0008280800093808000C001210090407800F1
:1010C0000080E8001040780002FF07000004E00004
:1010D00001003A00004C78004F0478000000060040
:1010E000889FBE008A9FBE008C9FBE00A00090001B
:1010F000514490006146900071429000114390006D
:10110000A141900011417800F04F510003003200DE
:10111000E14F410046003A00390037000049900095
:10112000E14F4100420032000C86FB008006EB00DC
:10113000486DDD00C865DE008B0575004865DD0083
:101140008482FB0004002000040275008582750083
:101150000884FB008004EB000802720089827200A0
:10116000C819DD000681FB0083017100926F200029
:10117000828F51001D003E00E38040001181FB0082
:10118000E711B900828F510018003E0036C0B3004D
:10119000E20021000649780084808800958088005C
:1011A000A38088006A0141001149780012C0B30091
:1011B000910121008248780041012000B18088001F
:1011C00020019000A1012100424190008248780056
:1011D000E380400000499000824878008100E800E8
:1011E0001048900080487800110037000401BE00CC
:1011F00011C0B30010489000B6FE07000C00370085
:10120000E10021001104E0000900320000499000D3
:10121000EF814000934F110005003A001048900004
:1012200070814000924F100001003A008048EB00AE
:101230004F06BE004F05BE004F04BE000000060072
:10124000E10021001104E000090032008048900014
:10125000D201210092CF100005003A009048900082
:101260000201E80092CF100001003A001CFF0700C5
:1012700000000600E00021001004E0000100320040
:101280006BFF070000000600E10F5000080032006D
:1012900005003900E20F500007003200E30F500054
:1012A00008003A000600370001EBA8000000060025
:1012B00011EBA8000000060021EBA80000000600CA
:1012C00031EBA80000000600E10F500009003200D9
:1012D00005003900E20F500009003200E30F500012
:1012E0000C003A000900370021588800062BEF0057
:1012F00000000600A1588800162BEF000000060031
:1013000021598800262BEF0000000600A159880013
:10131000362BEF0000000600E10F500008003200FD
:1013200005003900E20F500007003200E30F5000C3
:1013300008003A00060037006158880000000600E7
:10134000E15888000000060061598800000006008E
:10135000E1598800000006000004E0000C003200A3
:101360002468A9000C24EF00F08F2F000004B600C1
:1013700000A0A0000020880000208000000EB20025
:1013800001082000810F5000FBFF3A00000006001A
:10139000F08F2F000024B60000208000000EB20065
:1013A000FDFF3A0000000600889FBE008A9FBE0035
:1013B0008082FB00C429DD0004802100030142007B
:1013C000120178000208A30006003A004313DD0072
:1013D0004533DE008003EB008688BE0062016100B9
:1013E0001A003700030342002603900083014200E5
:1013F00013059000F3FF2000030565008005EB0056
:10140000465CDD00CA54DE00890474004654DD00E9
:10141000C3FF2100030161008001EB00C011DD006A
:101420000200200008014100898149004A32DE00A3
:1014300002014200E08149000204BE0009F0A00060
:101440008888BE00060178000220B2000200E00099
:101450000300320031E8A30021E0A0000E003700B5
:10146000C42ADD000280210085024100A501900010
:10147000EFC16100D34098000080FB004400DD0014
:101480006600400002014000E684400007000900B9
:10149000B25C78008200B1004F05BE004F04BE0070
:1014A000000006001101780091019000E00F51004A
:1014B000E08F590010003D00C4FF210003026200CC
:1014C0000400A00004087800C61BDE004A1ADD00F4
:1014D0004613DE0006037200F4FF200004026300DE
:1014E000140098004A11DD00D1419000EF816100A5
:1014F0000301410008003700F47F2000040161006F
:101500004211DD00020878000001EB001200980093
:10151000514190006F016100220098006601400077
:10152000E6814000070009003359780000000600FA
:10153000214420001000200077FF070001802100D7
:101540001000200060FF0700100020004EFF370051
:1015500001442000200020006FFF070001802100CF
:101560002000200058FF07002000200046FF370021
:10157000502080004D00DE00614060000000060049
:10158000502080004B00DE0061406000000006003B
:10159000502080004C00DE0061406000000006002A
:1015A000022180000000EB000200E0000800320091
:1015B0008000EB008111DE000308A300010032006F
:1015C0000000E8008100E800F08F5000F9FF3A00C9
:1015D000122180000200E000080032008000EB00D1
:1015E0008111DE000308A300010032000000E800C2
:1015F0008100E800F08F5000F9FF3A00000006007B
:101600000AC4A9000CC4A800F08F2F000004B60083
:101610000080A0000020880000208000000EB200A2
:1016200001022000810F5000FBFF3A00000006007D
:10163000881F78000001780010C0B300E78F5000C9
:1016400010003E0008432000010444009841780047
:101650000304E0000B003D000338A30009003A003A
:101660004408DD0003802100030040008200780070
:101670008CFF0700C0CFB300184060006A4C7000B8
:101680000040EB004F04780000000600889FBE0079
:10169000800478000004EB008800780009007800DE
:1016A000E3FF07000004E000050032000804E80042
:1016B000E80F5400F8FF3A0010C0B30001003700F3
:1016C0000040EB004F04BE0000000600889FBE00F3
:1016D000800078000A44AB00010032000A44A900EF
:1016E00048208000F803B200EF0F540003003E00D2
:1016F0000221800088047800020037001221800057
:10170000F00454000911DE0010C0B3000208A30069
:101710000D0032000840780023FF07001000200071
:10172000EF0F540004003E000900DD000080EA00D5
:1017300000218800030037000900DD000080EA0076
:10174000102188000040EB004F04BE00000006009E
:10175000100005000A24EF0000000600881F780032
:101760000004780014EEA90010C0B300FAFE0700D0
:101770001800780080208800980090009120880050
:101780005800900030208800C8009000A1208800F8
:101790002800900000208800B800900011208800E8
:1017A0000004A80028089000B80890008021880054
:1017B000912188007C004400014420001F000900A2
:1017C000B01878000004B10068289000F828900054
:1017D000002188001121880088309000C1208800F5
:1017E0000004A9006800900080218800F8009000A3
:1017F0009121880008089000A0218800180C900012
:10180000B82188002024EF002224EF002824EF00D4
:101810002A24EF000A24A9000040EB00CEFE0700B6
:1018200043FF07004AFF07004F047800000006004E
:1018300024FD3700100178009001900001B02E00C7
:10184000810F5100E08F59000500320001C02E00C9
:10185000810F5100E08F590002003A0020FE37004E
:1018600077FE370090FC37000E00FA00B0019000C0
:101870008040EB000700370066024100A0029000A4
:1018800002814200924278006E02520085777A000F
:101890008140E8000181FB00830F5100F6FF390011
:1018A000F3F79F00100178009001900092BF9F0015
:1018B000A3BF9F00F1FF2E00828F50000700390068
:1018C000004A90000482FB008002EB0002037200D9
:1018D0008383720096BF9F00A7BF9F0010499000AE
:1018E0000281FB008001EB0003F0A000204A900081
:1018F000670262008002EB00C222DD0004002000CB
:101900001FB89700AFB89700000272008182720082
:101910004828DD00C820DE00810070004820DD007E
:10192000000271008182710094BF9F00A5BF9F00DB
:101930006E80570055FF07000080FA000000060087
:10194000889FBE000004BE0010C0B3000850E20033
:101950001500320009D0BF00104C98001800780024
:101960009800900002A02E00820F5000E08F5800D7
:1019700005003A0008489000E14F400002003A009C
:1019800008007800ABFF070038009000E80F500017
:1019900003003E0008007800B3FF07000200370094
:1019A0000800BE00CAFC07004F04BE00000006008D
:1019B0000C00FA0080C0EB00C1FF9F00D0FF9F0029
:1019C00000E02E0001002000A0BF9F00B1BF9F00DB
:1019D00060C0B300E0FF9F0020362800C0BF9F001A
:1019E00080002000D0BF9F006C8057009EFF070042
:1019F0000080FA00000006000C00FA0010027800D7
:101A000090029000050178000220B2008001EB00F6
:101A1000C011DD0002002000E00F5100E08F5900EE
:101A20002E003A00E00F5200E08F5A002B003D00DC
:101A30004A29DE0003002000E7406100E1FF9F002B
:101A4000D4FF9F00C828DD004821DE00028170001D
:101A5000C829DE000288BE00F1CF42000A003E0025
:101A6000C2FF9F0004F02F001500200082006200DA
:101A7000038162008201780001017800A2BF9F000B
:101A8000B3BF9F000700370080C0EB00C1FF9F007D
:101A9000618261008402780002027800A4BF9F0086
:101AA000B5BF9F00CFF897009300210093417800C5
:101AB00081CF510002003200E1CF400007003A0020
:101AC000E6004000C1BF9F00504090000080FB0036
:101AD000D0BF9F006C80570056FF07000080FA00BF
:101AE000000006000E00FA00020037006E8057006A
:101AF000C1FF07006E805700F4FE07000004E000FD
:101B0000FAFF32000080FA0000000600F5FF07002F
:101B1000D8FD37000000FE00227321000019780074
:101B200001097800000006000000FE000000EB0044
:101B30008000EB00F8FF07002E27EF0000000600F2
:101B40000000FE000000FE00801F7800811F78006A
:101B5000217321000600FC003100780070398800F4
:101B6000110078007039880029E7A8000000000003
:101B700000000000CF0078004F0078000000060051
:101B80000000FE00A2028000A10288009080BA003E
:101B90001000BA00A2028800000006000000FE004B
:101BA000A2028000A10288001000BA00A2028800F0
:101BB000000006000000FE0029E7AF00FEFF37002E
:101BC000F27F2000000161001A003A000540200069
:101BD000A2028000A10288009001BA003082BA00FF
:101BE000834162008301E80004003A008502E900B5
:101BF000F9FF3A00A20288000C003700A202880018
:101C00000000E90005802F000080620032002400FF
:101C1000423988005039880061398800A40D0200DB
:101C20000000000029E7AF00FEFF37001000200091
:101C300029A7AF0000002000000006000000FE0001
:101C400029E7AF00FEFF37000000A70015003700AE
:101C50000010A70013003700613988005039880050
:101C60001000240040398800A0028000A10F20004D
:101C7000A1028800010020008208BB008398BB00FD
:101C80008408BB008598BB00A40D02000000000082
:101C900029E7AF00FEFF3700A002880010002000F7
:101CA00029A7AF0000002000000006000000FE0091
:101CB00029E7AF00FEFF37000000A700160037003D
:101CC0000010A700140037006139880050398800DF
:101CD000A10280001000240040398800A00F2000DD
:101CE000A0028800000020000208BB00F20F2000C4
:101CF0000298BB000308BB000298BB00A40D0200C1
:101D00000000000029E7AF00FEFF3700A1028800B5
:101D10001000200029A7AF000000200000000600EE
:101D2000F27F2000000061000000060002802F000A
:101D300000006100F2FF2F0081006100000006003A
:101D4000C3E8A90000000000000000004027EF00E9
:101D5000042EEF0000982100A070880000002200EF
:101D600020718800342EEF000000210020728800CE
:101D7000542EEF00642EEF0030F821000070880030
:101D8000F0732E008070880080F7210000718800B9
:101D90000006200080718800000028000072880082
:101DA000210020008172880001302000017388002A
:101DB0000C2EEF001C2EEF002C2EEF003C2EEF001F
:101DC0004C2EEF005C2EEF006C2EEF000A2EEF0081
:101DD0001A2EEF0001802000517188003A2EEF008A
:101DE0004A2EEF005A2EEF006A2EEF00062EEF006B
:101DF000162EEF00262EEF00362EEF00462EEF00B7
:101E0000562EEF00662EEF0032012100727088001E
:101E100033002000F37088007171880070728800B0
:101E2000123A8000F20BB20060042000710520001D
:101E300024742000004A7800014A7800024A7800A1
:101E400002F82F00A4368000040161005202B300A2
:101E5000A236880002FC2F002434800004016100B7
:101E6000E200B30022348800123A80000260A00031
:101E700024742000004A7800014A7800024A780061
:101E800002142300223A88004827EF004E27EF0073
:101E9000E20F2000323A88006027EF006227EF004F
:101EA0006427EF006627EF006A27EF006C27EF003A
:101EB000A40920008207200035742000824A78009F
:101EC000844A7800834A780012002000237420009E
:101ED0008049780081497800824978004207AB0048
:101EE000FEFF3A0042A7AB00FEFF320040A7A80069
:101EF0000021EF0000C4290010088800000328001A
:101F0000200888000A21EF004000200070088800A7
:101F10000621EF00404B2C00600888008003280059
:101F2000800888000C00070020028000200DB2000D
:101F30000050A00020028800000006001221EF00DF
:101F40001201F8001001F9001001F8000401F90075
:101F5000ABFD370000000600020220000258880096
:101F6000D000200010588800062BEF000000210050
:101F7000205888000A2BEF00082BEF000C2BEF00F5
:101F800071002000715888000088A9000302220017
:101F9000835888006304200093588800162BEF00B4
:101FA000A05888001A2BEF00182BEF001C2BEF0015
:101FB000F158880001C8A900025988000281E80090
:101FC00012598800262BEF00205988002A2BEF0099
:101FD000282BEF002C2BEF00715988000308A90073
:101FE000302BEF00322BEF00362BEF00A05988008A
:101FF0003A2BEF00382BEF003C2BEF003E2BEF008D
:102000000488A90000000600000006000088AB005C
:1020100002003200FCFF07000088A9000000060053
:102020000000060001C8AB0002003200FCFF070000
:1020300001C8A90000000600000006000308AB006C
:1020400002003200FCFF07000308A90000000600A0
:10205000000006000488AB0002003200FCFF07000D
:102060000488A9000000060008100000020000001B
:1020700082000000018000000E1000000A0700002E
:1020800080000000181700001A0000008200000005
:1020900000EF0000000000000000FF0080070000CB
:1020A00047F012000403010047F30600000004009B
:1020B0000038000000100000080000008000000050
:1020C0000A1000000200000082000000F70000007B
:1020D0000C1000000200000080000000001800004A
:1020E0000002000080000000001A00000002000052
:1020F0008000000032170000040000008200000091
:10210000FFFFFF00FF0000000000000080C068002B
:102110008180FB008180400002A0210081004100FD
:102120004800DE001100680000000600E49F210066
:102130008000EB000E0037008301D100808269002F
:102140000000D1000508A3000200320015002A009B
:10215000050068000201E900F7FF3A00002A780054
:102160008100E80000102000808F50000400320041
:1021700081017800820020000000EB00EFFF3700B3
:1021800000000600000006000068AB0004003200FA
:10219000003C26000021B4000C30EC000068A900CF
:1021A00000000600F8FF070000088000C2092000B8
:1021B000110009000280D80061808000C808DD009D
:1021C0000100400000000600881F7800000478002D
:1021D000F4FF0700080050004F04780000000600DC
:020000040002F8
:10AFE000CFFF0000FFFF000078FF000058FF0000C7
:08AFF000F8FF0000FFFF000064
:00000001FF
